{
  "transactions": [
    {
      "hash": null,
      "transactionType": "CALL",
      "contractName": null,
      "contractAddress": "0x291a34a9f686d4f509fc77e3756d66b206e002f8",
      "function": "trustedPrepMigrationBatch(address[],address)",
      "arguments": [
        "[0x9161f0c4f1Ee0169D9B30FFbFd90578BC8eb2bE3, 0x69738542e30617cB17429b2E2f8443F94ed1757c, 0x648BdC06cDffBE20cCBb3dD71f5590a23Cc2FD22, 0xbFf6653515b2B320944A7587D760aa3C7D08865D, 0xf89742e422888888B4120E045D6Ecc0D7DECe9c4, 0xfB75311065d71410b53B836F4BE6Ca032E0c60eF, 0x04328C9d9716AC3A61de482cB84D414d9F80D29a, 0x2B14378F3bc748710500eebeE60ad3353104BA4c, 0xC659e908f5743d969713f7960Fd830C48E7A255f, 0x2d657B98e8CDA99C364A2aF268DE4baEeD9a3154, 0xd648c1145Ed0c76Aa0b6FF8b3D16b299A6bf12bF, 0x8ffde3709Ca01b98F341D04a95304464D65E7a05, 0xa825F804218b0F89CD623427127Be702Ff3E1e9D, 0x5cd267CD6EBCcf234af6fD3743105D280773D6B2, 0x59d40D9848C3de9edFa30a40dA5227ecd304c237, 0x5678CB069f63d283E56D05520684526aB78577Ad, 0x6c9F7E7ADe41C01922036A4d8fafCc58c9146f0c, 0x8176842eaD2F280AB851F6e3dbdeE2cCCff57986, 0xB438557498712C192014e041fd2a18134CAB9492, 0x4bfb20930204d0248206A79e0D8FAD7E999FC7D1, 0xaf09477896e917fA763b81060ef8C89F85190e74, 0x53A7C7910f10a26e57249E16B9fe90E0050f7b50, 0xe4f2dE50F66Db8E1711D42872Ee4D48857bE6602, 0x9692Db2e0d30b42FEA2659BD3072ad6D621bEfff, 0xA467849e059e9FFcc2E9A848A9a785DBc271B3e6, 0x934B81a7F0c541543E45059CD099aE39C3f7Aa13, 0xB97254CA6e473bDA308495F977A048A4078c2767, 0x5992e66492e99E1cB9F6AcDAfA48A8A4A5a5748e, 0xFeE51405bE9F233c7b2972C8D684a936eDe31566, 0xcc67353F1C5d714460575e20d55b3ef11b3B12a7, 0x0D52F8e29008C037E675C0dC2cA0f3eD6C86a514, 0xC7F7F0D8608b2D07cB2Ac0B7e1b3d567fdCFAe06, 0x4799BBf44Eb7b6bF65bb757e07413fB4bF436eeb, 0xbE19673d0A0C5a40AEfD76bB9EF0086a58455eC4, 0xBb4ba34C3F88fF6B9B1E83AB7254CF5E2506E6e0, 0x06b28Af9c66976d18c033B3a990F2E4a23067E0E, 0xaab313228484004F2FF5162bC83A2e802f9151F9, 0x885bbb2D9C9E8BA360B3981Ea1Bda6cC706aD439, 0xf9737955df85845343F2FBCe2b531C8ed96A9c16, 0x9c2b9054A0f7212B74274A6Cf51A148a686770E5, 0x2b0265352daD666989A49Be1a9775eb17DeCf0a4, 0x6a989C153e473C1B77B203C74E9529587ff24e1E, 0x2b7FE7eaEFA1c58ec3a622891820C2170FEE36C6, 0x8d22Ebf29181a478F3DB615E2f811Ba07E33018f, 0x844D1335ba8903cf5FD07674c82D9dAD38104304, 0xE692c7CDbE35fb412d362e3c3c81D098ef989712, 0x0ffb52b56C4bBEd89bedEb060b1bB80608D030A9, 0xA92967Eb18029cC5E5aD014384F3a534a78AF588, 0x55b23e01FFD9fE4a318353353a9fA60a3350dc7B, 0xCce0a4612E3FfF155B56E568f34255EDA86cb4E5]",
        "0x0000000000000000000000000000000011111111"
      ],
      "transaction": {
        "from": "0x2167dcea5210a0744a4718ea4c56c042a2f84269",
        "to": "0x291a34a9f686d4f509fc77e3756d66b206e002f8",
        "gas": "0x4a2cd7",
        "value": "0x0",
        "input": "0x0c8a74e00000000000000000000000000000000000000000000000000000000000000040000000000000000000000000000000000000000000000000000000001111111100000000000000000000000000000000000000000000000000000000000000320000000000000000000000009161f0c4f1ee0169d9b30ffbfd90578bc8eb2be300000000000000000000000069738542e30617cb17429b2e2f8443f94ed1757c000000000000000000000000648bdc06cdffbe20ccbb3dd71f5590a23cc2fd22000000000000000000000000bff6653515b2b320944a7587d760aa3c7d08865d000000000000000000000000f89742e422888888b4120e045d6ecc0d7dece9c4000000000000000000000000fb75311065d71410b53b836f4be6ca032e0c60ef00000000000000000000000004328c9d9716ac3a61de482cb84d414d9f80d29a0000000000000000000000002b14378f3bc748710500eebee60ad3353104ba4c000000000000000000000000c659e908f5743d969713f7960fd830c48e7a255f0000000000000000000000002d657b98e8cda99c364a2af268de4baeed9a3154000000000000000000000000d648c1145ed0c76aa0b6ff8b3d16b299a6bf12bf0000000000000000000000008ffde3709ca01b98f341d04a95304464d65e7a05000000000000000000000000a825f804218b0f89cd623427127be702ff3e1e9d0000000000000000000000005cd267cd6ebccf234af6fd3743105d280773d6b200000000000000000000000059d40d9848c3de9edfa30a40da5227ecd304c2370000000000000000000000005678cb069f63d283e56d05520684526ab78577ad0000000000000000000000006c9f7e7ade41c01922036a4d8fafcc58c9146f0c0000000000000000000000008176842ead2f280ab851f6e3dbdee2cccff57986000000000000000000000000b438557498712c192014e041fd2a18134cab94920000000000000000000000004bfb20930204d0248206a79e0d8fad7e999fc7d1000000000000000000000000af09477896e917fa763b81060ef8c89f85190e7400000000000000000000000053a7c7910f10a26e57249e16b9fe90e0050f7b50000000000000000000000000e4f2de50f66db8e1711d42872ee4d48857be66020000000000000000000000009692db2e0d30b42fea2659bd3072ad6d621befff000000000000000000000000a467849e059e9ffcc2e9a848a9a785dbc271b3e6000000000000000000000000934b81a7f0c541543e45059cd099ae39c3f7aa13000000000000000000000000b97254ca6e473bda308495f977a048a4078c27670000000000000000000000005992e66492e99e1cb9f6acdafa48a8a4a5a5748e000000000000000000000000fee51405be9f233c7b2972c8d684a936ede31566000000000000000000000000cc67353f1c5d714460575e20d55b3ef11b3b12a70000000000000000000000000d52f8e29008c037e675c0dc2ca0f3ed6c86a514000000000000000000000000c7f7f0d8608b2d07cb2ac0b7e1b3d567fdcfae060000000000000000000000004799bbf44eb7b6bf65bb757e07413fb4bf436eeb000000000000000000000000be19673d0a0c5a40aefd76bb9ef0086a58455ec4000000000000000000000000bb4ba34c3f88ff6b9b1e83ab7254cf5e2506e6e000000000000000000000000006b28af9c66976d18c033b3a990f2e4a23067e0e000000000000000000000000aab313228484004f2ff5162bc83a2e802f9151f9000000000000000000000000885bbb2d9c9e8ba360b3981ea1bda6cc706ad439000000000000000000000000f9737955df85845343f2fbce2b531c8ed96a9c160000000000000000000000009c2b9054a0f7212b74274a6cf51a148a686770e50000000000000000000000002b0265352dad666989a49be1a9775eb17decf0a40000000000000000000000006a989c153e473c1b77b203c74e9529587ff24e1e0000000000000000000000002b7fe7eaefa1c58ec3a622891820c2170fee36c60000000000000000000000008d22ebf29181a478f3db615e2f811ba07e33018f000000000000000000000000844d1335ba8903cf5fd07674c82d9dad38104304000000000000000000000000e692c7cdbe35fb412d362e3c3c81d098ef9897120000000000000000000000000ffb52b56c4bbed89bedeb060b1bb80608d030a9000000000000000000000000a92967eb18029cc5e5ad014384f3a534a78af58800000000000000000000000055b23e01ffd9fe4a318353353a9fa60a3350dc7b000000000000000000000000cce0a4612e3fff155b56e568f34255eda86cb4e5",
        "nonce": "0x46",
        "chainId": "0x14a34"
      },
      "additionalContracts": [],
      "isFixedGasLimit": false
    }
  ],
  "receipts": [],
  "libraries": [],
  "pending": [],
  "returns": {},
  "timestamp": 1722038510,
  "chain": 84532,
  "commit": "2d34579"
}