{
  "transactions": [
    {
      "hash": "0x1615d50837855cc7022712667480f055d798446454ece5bdda0ef343f92012de",
      "transactionType": "CALL",
      "contractName": null,
      "contractAddress": "0x291a34a9f686d4f509fc77e3756d66b206e002f8",
      "function": "trustedPrepMigrationBatch(address[],address)",
      "arguments": [
        "[0x47948fB1a20ed19FeEC909541C5493Ab43dFF9C5, 0xEF64E3474B605f43db18d86A6f0D887490AA02E1, 0xc1dB19e757497F163DC12d6e129992BD0889ACcC, 0xE57aC5FbcCB22Cbb25A9A1c66BFE490396Be7A81, 0x84b8D95De1BD45cC0b18059CE377b435C84203d7, 0x450ba5797baA6404fAB5265Aeb4c60628B4C8012, 0x36e266CFf91be3835Fbd5BE42bDAbC75131c6000, 0x68aC0FC7e2e9f6D5F92708c8746459060D0DAe3C, 0x56cf3f313fae6f5A6CE08a8BF8Ed698A1228F571, 0x782297E96aE5Dd2dB4433ad5BC6a8a006963714f, 0xC431466d29CD2C5C9A195b1024052Fa8880Fff4F, 0xA9b996EBBD86Cc36f39F9f7a3a477c4749e55bCD, 0xbC662482Fcd3D0764f809Bf8AC916f32EcD94a8F, 0x3351bCA2E31BF5086EafB920BD7b68bfe3D783D4, 0x1508b3aA88dBa085Ac172Cf2b305cB8AA93FA924, 0x0c528D5D8cbcc8D3a0fb3c5431CC893b0898d6AD, 0x89E5e9928bC73d9deE8f635CeeEbc252fb4229FC, 0xe3723EF3Df28D9757110b1c267D1c460C7ea322e, 0x021FccB588ea3fD18f837FC8AE77fD47071d3115, 0x1CFf7F13B77298Fe0295f6D4DC425de4Cc58AC6d, 0x675A5a3710988D6435afa8c63fa9531022D61fC7, 0xf66b8471D6F6351A972D9519b1a7C56D9634743B, 0x0c589108780011668Dc396B46a3E450C4DB150B0, 0x449A419e24f987383dFd06C8553818E159f789a6, 0x7701cA3af2E9EF5F4948F4bf89F6de911DC753F4, 0xc6565F207236FdEcAc0F43BBA98Aa6799E13743d, 0x4077DA08a337980A36946598AbbD26b12e74a9a2, 0x5eB4041C61f4E3a7B235661Ef7011234991e6683, 0x5993eFDC946cA00Be2068856ef05dA646cA09d5F, 0x32ba3e81BFADe4B02f2Bf4e4727560f11E838414, 0xdb49C3A43D610286b35FD29dC5D06aD66fab6F61, 0xd5d838c6Bd0ACB3a2ca975C289d99a8Cf86C4319, 0xD70a0E59ab73e03001B4A7CfF4a9F126e7d95032, 0x550e2D79Eb01fD13872Ddd158dCA5cc272335390, 0x6Cb6cb127bE6E52Dc293D1e50b390a9217d90d66, 0x868eeBc228C5d0F453358273750edE1411720379, 0xCa26414F30aA25581B895cbF50DD338F11E3dAAb, 0x3ffa6e3fb7C1063c341979350986370942AB8183, 0xfb56DDF255236f9E92c4e46e60537aD4A9B56A69, 0x06D80AB8E8116219BC4262eB90Fc47f279aA8D8F, 0xC7f8F2b58319481aEA7691b651C99250Ed9E7c07, 0xC61a28580c4e39553fD78B6A6a306dbf266fAB09, 0xbbb1323ec7d3B445DC71412547d47716c03B1826, 0x80492A739bf698278900111431F963006fe35AD7, 0x12EbB307aEAa635D806294526EA5B408420840a7, 0x0Dc0669495e4b018DB1F5a83C43889B5769031C1, 0x7Df6D32cF5D38cf7B7781989111c95Ae4C8BA1F2, 0xb0bFC8A102497721Cd32e5Acbf89593b0CE36eDf, 0x58e9e59D18bc9c22a060e016d899C1d9c1570306, 0x3E221f89196415ca2F04c648A25425F748c5b0b4]",
        "0x0000000000000000000000000000000011111111"
      ],
      "transaction": {
        "from": "0x2167dcea5210a0744a4718ea4c56c042a2f84269",
        "to": "0x291a34a9f686d4f509fc77e3756d66b206e002f8",
        "gas": "0x4a88e8",
        "value": "0x0",
        "input": "0x0c8a74e000000000000000000000000000000000000000000000000000000000000000400000000000000000000000000000000000000000000000000000000011111111000000000000000000000000000000000000000000000000000000000000003200000000000000000000000047948fb1a20ed19feec909541c5493ab43dff9c5000000000000000000000000ef64e3474b605f43db18d86a6f0d887490aa02e1000000000000000000000000c1db19e757497f163dc12d6e129992bd0889accc000000000000000000000000e57ac5fbccb22cbb25a9a1c66bfe490396be7a8100000000000000000000000084b8d95de1bd45cc0b18059ce377b435c84203d7000000000000000000000000450ba5797baa6404fab5265aeb4c60628b4c801200000000000000000000000036e266cff91be3835fbd5be42bdabc75131c600000000000000000000000000068ac0fc7e2e9f6d5f92708c8746459060d0dae3c00000000000000000000000056cf3f313fae6f5a6ce08a8bf8ed698a1228f571000000000000000000000000782297e96ae5dd2db4433ad5bc6a8a006963714f000000000000000000000000c431466d29cd2c5c9a195b1024052fa8880fff4f000000000000000000000000a9b996ebbd86cc36f39f9f7a3a477c4749e55bcd000000000000000000000000bc662482fcd3d0764f809bf8ac916f32ecd94a8f0000000000000000000000003351bca2e31bf5086eafb920bd7b68bfe3d783d40000000000000000000000001508b3aa88dba085ac172cf2b305cb8aa93fa9240000000000000000000000000c528d5d8cbcc8d3a0fb3c5431cc893b0898d6ad00000000000000000000000089e5e9928bc73d9dee8f635ceeebc252fb4229fc000000000000000000000000e3723ef3df28d9757110b1c267d1c460c7ea322e000000000000000000000000021fccb588ea3fd18f837fc8ae77fd47071d31150000000000000000000000001cff7f13b77298fe0295f6d4dc425de4cc58ac6d000000000000000000000000675a5a3710988d6435afa8c63fa9531022d61fc7000000000000000000000000f66b8471d6f6351a972d9519b1a7c56d9634743b0000000000000000000000000c589108780011668dc396b46a3e450c4db150b0000000000000000000000000449a419e24f987383dfd06c8553818e159f789a60000000000000000000000007701ca3af2e9ef5f4948f4bf89f6de911dc753f4000000000000000000000000c6565f207236fdecac0f43bba98aa6799e13743d0000000000000000000000004077da08a337980a36946598abbd26b12e74a9a20000000000000000000000005eb4041c61f4e3a7b235661ef7011234991e66830000000000000000000000005993efdc946ca00be2068856ef05da646ca09d5f00000000000000000000000032ba3e81bfade4b02f2bf4e4727560f11e838414000000000000000000000000db49c3a43d610286b35fd29dc5d06ad66fab6f61000000000000000000000000d5d838c6bd0acb3a2ca975c289d99a8cf86c4319000000000000000000000000d70a0e59ab73e03001b4a7cff4a9f126e7d95032000000000000000000000000550e2d79eb01fd13872ddd158dca5cc2723353900000000000000000000000006cb6cb127be6e52dc293d1e50b390a9217d90d66000000000000000000000000868eebc228c5d0f453358273750ede1411720379000000000000000000000000ca26414f30aa25581b895cbf50dd338f11e3daab0000000000000000000000003ffa6e3fb7c1063c341979350986370942ab8183000000000000000000000000fb56ddf255236f9e92c4e46e60537ad4a9b56a6900000000000000000000000006d80ab8e8116219bc4262eb90fc47f279aa8d8f000000000000000000000000c7f8f2b58319481aea7691b651c99250ed9e7c07000000000000000000000000c61a28580c4e39553fd78b6a6a306dbf266fab09000000000000000000000000bbb1323ec7d3b445dc71412547d47716c03b182600000000000000000000000080492a739bf698278900111431f963006fe35ad700000000000000000000000012ebb307aeaa635d806294526ea5b408420840a70000000000000000000000000dc0669495e4b018db1f5a83c43889b5769031c10000000000000000000000007df6d32cf5d38cf7b7781989111c95ae4c8ba1f2000000000000000000000000b0bfc8a102497721cd32e5acbf89593b0ce36edf00000000000000000000000058e9e59d18bc9c22a060e016d899c1d9c15703060000000000000000000000003e221f89196415ca2f04c648a25425f748c5b0b4",
        "nonce": "0x45",
        "chainId": "0x14a34"
      },
      "additionalContracts": [],
      "isFixedGasLimit": false
    }
  ],
  "receipts": [
    {
      "status": "0x1",
      "cumulativeGasUsed": "0x36a1ab",
      "logs": [
        {
          "address": "0x291a34a9f686d4f509fc77e3756d66b206e002f8",
          "topics": [
            "0x422114760399465454e00471dd7c1c0a6cb871bc6fcebef498fa87328fd7b05d",
            "0x00000000000000000000000047948fb1a20ed19feec909541c5493ab43dff9c5"
          ],
          "data": "0x00000000000000000000000000000000000000000000000000000000000000010000000000000000000000000000000000000000000000000000000011111111",
          "blockHash": "0xdec659e3007186d21ab0688e3019150071ff91acdd9a9c4b33905799ace6796b",
          "blockNumber": "0xc86c6e",
          "transactionHash": "0x1615d50837855cc7022712667480f055d798446454ece5bdda0ef343f92012de",
          "transactionIndex": "0x1",
          "logIndex": "0x0",
          "removed": false
        },
        {
          "address": "0x291a34a9f686d4f509fc77e3756d66b206e002f8",
          "topics": [
            "0x422114760399465454e00471dd7c1c0a6cb871bc6fcebef498fa87328fd7b05d",
            "0x000000000000000000000000ef64e3474b605f43db18d86a6f0d887490aa02e1"
          ],
          "data": "0x00000000000000000000000000000000000000000000000000000000000000020000000000000000000000000000000000000000000000000000000011111111",
          "blockHash": "0xdec659e3007186d21ab0688e3019150071ff91acdd9a9c4b33905799ace6796b",
          "blockNumber": "0xc86c6e",
          "transactionHash": "0x1615d50837855cc7022712667480f055d798446454ece5bdda0ef343f92012de",
          "transactionIndex": "0x1",
          "logIndex": "0x1",
          "removed": false
        },
        {
          "address": "0x291a34a9f686d4f509fc77e3756d66b206e002f8",
          "topics": [
            "0x422114760399465454e00471dd7c1c0a6cb871bc6fcebef498fa87328fd7b05d",
            "0x000000000000000000000000c1db19e757497f163dc12d6e129992bd0889accc"
          ],
          "data": "0x00000000000000000000000000000000000000000000000000000000000000030000000000000000000000000000000000000000000000000000000011111111",
          "blockHash": "0xdec659e3007186d21ab0688e3019150071ff91acdd9a9c4b33905799ace6796b",
          "blockNumber": "0xc86c6e",
          "transactionHash": "0x1615d50837855cc7022712667480f055d798446454ece5bdda0ef343f92012de",
          "transactionIndex": "0x1",
          "logIndex": "0x2",
          "removed": false
        },
        {
          "address": "0x291a34a9f686d4f509fc77e3756d66b206e002f8",
          "topics": [
            "0x422114760399465454e00471dd7c1c0a6cb871bc6fcebef498fa87328fd7b05d",
            "0x000000000000000000000000e57ac5fbccb22cbb25a9a1c66bfe490396be7a81"
          ],
          "data": "0x00000000000000000000000000000000000000000000000000000000000000040000000000000000000000000000000000000000000000000000000011111111",
          "blockHash": "0xdec659e3007186d21ab0688e3019150071ff91acdd9a9c4b33905799ace6796b",
          "blockNumber": "0xc86c6e",
          "transactionHash": "0x1615d50837855cc7022712667480f055d798446454ece5bdda0ef343f92012de",
          "transactionIndex": "0x1",
          "logIndex": "0x3",
          "removed": false
        },
        {
          "address": "0x291a34a9f686d4f509fc77e3756d66b206e002f8",
          "topics": [
            "0x422114760399465454e00471dd7c1c0a6cb871bc6fcebef498fa87328fd7b05d",
            "0x00000000000000000000000084b8d95de1bd45cc0b18059ce377b435c84203d7"
          ],
          "data": "0x00000000000000000000000000000000000000000000000000000000000000050000000000000000000000000000000000000000000000000000000011111111",
          "blockHash": "0xdec659e3007186d21ab0688e3019150071ff91acdd9a9c4b33905799ace6796b",
          "blockNumber": "0xc86c6e",
          "transactionHash": "0x1615d50837855cc7022712667480f055d798446454ece5bdda0ef343f92012de",
          "transactionIndex": "0x1",
          "logIndex": "0x4",
          "removed": false
        },
        {
          "address": "0x291a34a9f686d4f509fc77e3756d66b206e002f8",
          "topics": [
            "0x422114760399465454e00471dd7c1c0a6cb871bc6fcebef498fa87328fd7b05d",
            "0x000000000000000000000000450ba5797baa6404fab5265aeb4c60628b4c8012"
          ],
          "data": "0x00000000000000000000000000000000000000000000000000000000000000060000000000000000000000000000000000000000000000000000000011111111",
          "blockHash": "0xdec659e3007186d21ab0688e3019150071ff91acdd9a9c4b33905799ace6796b",
          "blockNumber": "0xc86c6e",
          "transactionHash": "0x1615d50837855cc7022712667480f055d798446454ece5bdda0ef343f92012de",
          "transactionIndex": "0x1",
          "logIndex": "0x5",
          "removed": false
        },
        {
          "address": "0x291a34a9f686d4f509fc77e3756d66b206e002f8",
          "topics": [
            "0x422114760399465454e00471dd7c1c0a6cb871bc6fcebef498fa87328fd7b05d",
            "0x00000000000000000000000036e266cff91be3835fbd5be42bdabc75131c6000"
          ],
          "data": "0x00000000000000000000000000000000000000000000000000000000000000070000000000000000000000000000000000000000000000000000000011111111",
          "blockHash": "0xdec659e3007186d21ab0688e3019150071ff91acdd9a9c4b33905799ace6796b",
          "blockNumber": "0xc86c6e",
          "transactionHash": "0x1615d50837855cc7022712667480f055d798446454ece5bdda0ef343f92012de",
          "transactionIndex": "0x1",
          "logIndex": "0x6",
          "removed": false
        },
        {
          "address": "0x291a34a9f686d4f509fc77e3756d66b206e002f8",
          "topics": [
            "0x422114760399465454e00471dd7c1c0a6cb871bc6fcebef498fa87328fd7b05d",
            "0x00000000000000000000000068ac0fc7e2e9f6d5f92708c8746459060d0dae3c"
          ],
          "data": "0x00000000000000000000000000000000000000000000000000000000000000080000000000000000000000000000000000000000000000000000000011111111",
          "blockHash": "0xdec659e3007186d21ab0688e3019150071ff91acdd9a9c4b33905799ace6796b",
          "blockNumber": "0xc86c6e",
          "transactionHash": "0x1615d50837855cc7022712667480f055d798446454ece5bdda0ef343f92012de",
          "transactionIndex": "0x1",
          "logIndex": "0x7",
          "removed": false
        },
        {
          "address": "0x291a34a9f686d4f509fc77e3756d66b206e002f8",
          "topics": [
            "0x422114760399465454e00471dd7c1c0a6cb871bc6fcebef498fa87328fd7b05d",
            "0x00000000000000000000000056cf3f313fae6f5a6ce08a8bf8ed698a1228f571"
          ],
          "data": "0x00000000000000000000000000000000000000000000000000000000000000090000000000000000000000000000000000000000000000000000000011111111",
          "blockHash": "0xdec659e3007186d21ab0688e3019150071ff91acdd9a9c4b33905799ace6796b",
          "blockNumber": "0xc86c6e",
          "transactionHash": "0x1615d50837855cc7022712667480f055d798446454ece5bdda0ef343f92012de",
          "transactionIndex": "0x1",
          "logIndex": "0x8",
          "removed": false
        },
        {
          "address": "0x291a34a9f686d4f509fc77e3756d66b206e002f8",
          "topics": [
            "0x422114760399465454e00471dd7c1c0a6cb871bc6fcebef498fa87328fd7b05d",
            "0x000000000000000000000000782297e96ae5dd2db4433ad5bc6a8a006963714f"
          ],
          "data": "0x000000000000000000000000000000000000000000000000000000000000000a0000000000000000000000000000000000000000000000000000000011111111",
          "blockHash": "0xdec659e3007186d21ab0688e3019150071ff91acdd9a9c4b33905799ace6796b",
          "blockNumber": "0xc86c6e",
          "transactionHash": "0x1615d50837855cc7022712667480f055d798446454ece5bdda0ef343f92012de",
          "transactionIndex": "0x1",
          "logIndex": "0x9",
          "removed": false
        },
        {
          "address": "0x291a34a9f686d4f509fc77e3756d66b206e002f8",
          "topics": [
            "0x422114760399465454e00471dd7c1c0a6cb871bc6fcebef498fa87328fd7b05d",
            "0x000000000000000000000000c431466d29cd2c5c9a195b1024052fa8880fff4f"
          ],
          "data": "0x000000000000000000000000000000000000000000000000000000000000000b0000000000000000000000000000000000000000000000000000000011111111",
          "blockHash": "0xdec659e3007186d21ab0688e3019150071ff91acdd9a9c4b33905799ace6796b",
          "blockNumber": "0xc86c6e",
          "transactionHash": "0x1615d50837855cc7022712667480f055d798446454ece5bdda0ef343f92012de",
          "transactionIndex": "0x1",
          "logIndex": "0xa",
          "removed": false
        },
        {
          "address": "0x291a34a9f686d4f509fc77e3756d66b206e002f8",
          "topics": [
            "0x422114760399465454e00471dd7c1c0a6cb871bc6fcebef498fa87328fd7b05d",
            "0x000000000000000000000000a9b996ebbd86cc36f39f9f7a3a477c4749e55bcd"
          ],
          "data": "0x000000000000000000000000000000000000000000000000000000000000000c0000000000000000000000000000000000000000000000000000000011111111",
          "blockHash": "0xdec659e3007186d21ab0688e3019150071ff91acdd9a9c4b33905799ace6796b",
          "blockNumber": "0xc86c6e",
          "transactionHash": "0x1615d50837855cc7022712667480f055d798446454ece5bdda0ef343f92012de",
          "transactionIndex": "0x1",
          "logIndex": "0xb",
          "removed": false
        },
        {
          "address": "0x291a34a9f686d4f509fc77e3756d66b206e002f8",
          "topics": [
            "0x422114760399465454e00471dd7c1c0a6cb871bc6fcebef498fa87328fd7b05d",
            "0x000000000000000000000000bc662482fcd3d0764f809bf8ac916f32ecd94a8f"
          ],
          "data": "0x000000000000000000000000000000000000000000000000000000000000000d0000000000000000000000000000000000000000000000000000000011111111",
          "blockHash": "0xdec659e3007186d21ab0688e3019150071ff91acdd9a9c4b33905799ace6796b",
          "blockNumber": "0xc86c6e",
          "transactionHash": "0x1615d50837855cc7022712667480f055d798446454ece5bdda0ef343f92012de",
          "transactionIndex": "0x1",
          "logIndex": "0xc",
          "removed": false
        },
        {
          "address": "0x291a34a9f686d4f509fc77e3756d66b206e002f8",
          "topics": [
            "0x422114760399465454e00471dd7c1c0a6cb871bc6fcebef498fa87328fd7b05d",
            "0x0000000000000000000000003351bca2e31bf5086eafb920bd7b68bfe3d783d4"
          ],
          "data": "0x000000000000000000000000000000000000000000000000000000000000000e0000000000000000000000000000000000000000000000000000000011111111",
          "blockHash": "0xdec659e3007186d21ab0688e3019150071ff91acdd9a9c4b33905799ace6796b",
          "blockNumber": "0xc86c6e",
          "transactionHash": "0x1615d50837855cc7022712667480f055d798446454ece5bdda0ef343f92012de",
          "transactionIndex": "0x1",
          "logIndex": "0xd",
          "removed": false
        },
        {
          "address": "0x291a34a9f686d4f509fc77e3756d66b206e002f8",
          "topics": [
            "0x422114760399465454e00471dd7c1c0a6cb871bc6fcebef498fa87328fd7b05d",
            "0x0000000000000000000000001508b3aa88dba085ac172cf2b305cb8aa93fa924"
          ],
          "data": "0x000000000000000000000000000000000000000000000000000000000000000f0000000000000000000000000000000000000000000000000000000011111111",
          "blockHash": "0xdec659e3007186d21ab0688e3019150071ff91acdd9a9c4b33905799ace6796b",
          "blockNumber": "0xc86c6e",
          "transactionHash": "0x1615d50837855cc7022712667480f055d798446454ece5bdda0ef343f92012de",
          "transactionIndex": "0x1",
          "logIndex": "0xe",
          "removed": false
        },
        {
          "address": "0x291a34a9f686d4f509fc77e3756d66b206e002f8",
          "topics": [
            "0x422114760399465454e00471dd7c1c0a6cb871bc6fcebef498fa87328fd7b05d",
            "0x0000000000000000000000000c528d5d8cbcc8d3a0fb3c5431cc893b0898d6ad"
          ],
          "data": "0x00000000000000000000000000000000000000000000000000000000000000100000000000000000000000000000000000000000000000000000000011111111",
          "blockHash": "0xdec659e3007186d21ab0688e3019150071ff91acdd9a9c4b33905799ace6796b",
          "blockNumber": "0xc86c6e",
          "transactionHash": "0x1615d50837855cc7022712667480f055d798446454ece5bdda0ef343f92012de",
          "transactionIndex": "0x1",
          "logIndex": "0xf",
          "removed": false
        },
        {
          "address": "0x291a34a9f686d4f509fc77e3756d66b206e002f8",
          "topics": [
            "0x422114760399465454e00471dd7c1c0a6cb871bc6fcebef498fa87328fd7b05d",
            "0x00000000000000000000000089e5e9928bc73d9dee8f635ceeebc252fb4229fc"
          ],
          "data": "0x00000000000000000000000000000000000000000000000000000000000000110000000000000000000000000000000000000000000000000000000011111111",
          "blockHash": "0xdec659e3007186d21ab0688e3019150071ff91acdd9a9c4b33905799ace6796b",
          "blockNumber": "0xc86c6e",
          "transactionHash": "0x1615d50837855cc7022712667480f055d798446454ece5bdda0ef343f92012de",
          "transactionIndex": "0x1",
          "logIndex": "0x10",
          "removed": false
        },
        {
          "address": "0x291a34a9f686d4f509fc77e3756d66b206e002f8",
          "topics": [
            "0x422114760399465454e00471dd7c1c0a6cb871bc6fcebef498fa87328fd7b05d",
            "0x000000000000000000000000e3723ef3df28d9757110b1c267d1c460c7ea322e"
          ],
          "data": "0x00000000000000000000000000000000000000000000000000000000000000120000000000000000000000000000000000000000000000000000000011111111",
          "blockHash": "0xdec659e3007186d21ab0688e3019150071ff91acdd9a9c4b33905799ace6796b",
          "blockNumber": "0xc86c6e",
          "transactionHash": "0x1615d50837855cc7022712667480f055d798446454ece5bdda0ef343f92012de",
          "transactionIndex": "0x1",
          "logIndex": "0x11",
          "removed": false
        },
        {
          "address": "0x291a34a9f686d4f509fc77e3756d66b206e002f8",
          "topics": [
            "0x422114760399465454e00471dd7c1c0a6cb871bc6fcebef498fa87328fd7b05d",
            "0x000000000000000000000000021fccb588ea3fd18f837fc8ae77fd47071d3115"
          ],
          "data": "0x00000000000000000000000000000000000000000000000000000000000000130000000000000000000000000000000000000000000000000000000011111111",
          "blockHash": "0xdec659e3007186d21ab0688e3019150071ff91acdd9a9c4b33905799ace6796b",
          "blockNumber": "0xc86c6e",
          "transactionHash": "0x1615d50837855cc7022712667480f055d798446454ece5bdda0ef343f92012de",
          "transactionIndex": "0x1",
          "logIndex": "0x12",
          "removed": false
        },
        {
          "address": "0x291a34a9f686d4f509fc77e3756d66b206e002f8",
          "topics": [
            "0x422114760399465454e00471dd7c1c0a6cb871bc6fcebef498fa87328fd7b05d",
            "0x0000000000000000000000001cff7f13b77298fe0295f6d4dc425de4cc58ac6d"
          ],
          "data": "0x00000000000000000000000000000000000000000000000000000000000000140000000000000000000000000000000000000000000000000000000011111111",
          "blockHash": "0xdec659e3007186d21ab0688e3019150071ff91acdd9a9c4b33905799ace6796b",
          "blockNumber": "0xc86c6e",
          "transactionHash": "0x1615d50837855cc7022712667480f055d798446454ece5bdda0ef343f92012de",
          "transactionIndex": "0x1",
          "logIndex": "0x13",
          "removed": false
        },
        {
          "address": "0x291a34a9f686d4f509fc77e3756d66b206e002f8",
          "topics": [
            "0x422114760399465454e00471dd7c1c0a6cb871bc6fcebef498fa87328fd7b05d",
            "0x000000000000000000000000675a5a3710988d6435afa8c63fa9531022d61fc7"
          ],
          "data": "0x00000000000000000000000000000000000000000000000000000000000000150000000000000000000000000000000000000000000000000000000011111111",
          "blockHash": "0xdec659e3007186d21ab0688e3019150071ff91acdd9a9c4b33905799ace6796b",
          "blockNumber": "0xc86c6e",
          "transactionHash": "0x1615d50837855cc7022712667480f055d798446454ece5bdda0ef343f92012de",
          "transactionIndex": "0x1",
          "logIndex": "0x14",
          "removed": false
        },
        {
          "address": "0x291a34a9f686d4f509fc77e3756d66b206e002f8",
          "topics": [
            "0x422114760399465454e00471dd7c1c0a6cb871bc6fcebef498fa87328fd7b05d",
            "0x000000000000000000000000f66b8471d6f6351a972d9519b1a7c56d9634743b"
          ],
          "data": "0x00000000000000000000000000000000000000000000000000000000000000160000000000000000000000000000000000000000000000000000000011111111",
          "blockHash": "0xdec659e3007186d21ab0688e3019150071ff91acdd9a9c4b33905799ace6796b",
          "blockNumber": "0xc86c6e",
          "transactionHash": "0x1615d50837855cc7022712667480f055d798446454ece5bdda0ef343f92012de",
          "transactionIndex": "0x1",
          "logIndex": "0x15",
          "removed": false
        },
        {
          "address": "0x291a34a9f686d4f509fc77e3756d66b206e002f8",
          "topics": [
            "0x422114760399465454e00471dd7c1c0a6cb871bc6fcebef498fa87328fd7b05d",
            "0x0000000000000000000000000c589108780011668dc396b46a3e450c4db150b0"
          ],
          "data": "0x00000000000000000000000000000000000000000000000000000000000000170000000000000000000000000000000000000000000000000000000011111111",
          "blockHash": "0xdec659e3007186d21ab0688e3019150071ff91acdd9a9c4b33905799ace6796b",
          "blockNumber": "0xc86c6e",
          "transactionHash": "0x1615d50837855cc7022712667480f055d798446454ece5bdda0ef343f92012de",
          "transactionIndex": "0x1",
          "logIndex": "0x16",
          "removed": false
        },
        {
          "address": "0x291a34a9f686d4f509fc77e3756d66b206e002f8",
          "topics": [
            "0x422114760399465454e00471dd7c1c0a6cb871bc6fcebef498fa87328fd7b05d",
            "0x000000000000000000000000449a419e24f987383dfd06c8553818e159f789a6"
          ],
          "data": "0x00000000000000000000000000000000000000000000000000000000000000180000000000000000000000000000000000000000000000000000000011111111",
          "blockHash": "0xdec659e3007186d21ab0688e3019150071ff91acdd9a9c4b33905799ace6796b",
          "blockNumber": "0xc86c6e",
          "transactionHash": "0x1615d50837855cc7022712667480f055d798446454ece5bdda0ef343f92012de",
          "transactionIndex": "0x1",
          "logIndex": "0x17",
          "removed": false
        },
        {
          "address": "0x291a34a9f686d4f509fc77e3756d66b206e002f8",
          "topics": [
            "0x422114760399465454e00471dd7c1c0a6cb871bc6fcebef498fa87328fd7b05d",
            "0x0000000000000000000000007701ca3af2e9ef5f4948f4bf89f6de911dc753f4"
          ],
          "data": "0x00000000000000000000000000000000000000000000000000000000000000190000000000000000000000000000000000000000000000000000000011111111",
          "blockHash": "0xdec659e3007186d21ab0688e3019150071ff91acdd9a9c4b33905799ace6796b",
          "blockNumber": "0xc86c6e",
          "transactionHash": "0x1615d50837855cc7022712667480f055d798446454ece5bdda0ef343f92012de",
          "transactionIndex": "0x1",
          "logIndex": "0x18",
          "removed": false
        },
        {
          "address": "0x291a34a9f686d4f509fc77e3756d66b206e002f8",
          "topics": [
            "0x422114760399465454e00471dd7c1c0a6cb871bc6fcebef498fa87328fd7b05d",
            "0x000000000000000000000000c6565f207236fdecac0f43bba98aa6799e13743d"
          ],
          "data": "0x000000000000000000000000000000000000000000000000000000000000001a0000000000000000000000000000000000000000000000000000000011111111",
          "blockHash": "0xdec659e3007186d21ab0688e3019150071ff91acdd9a9c4b33905799ace6796b",
          "blockNumber": "0xc86c6e",
          "transactionHash": "0x1615d50837855cc7022712667480f055d798446454ece5bdda0ef343f92012de",
          "transactionIndex": "0x1",
          "logIndex": "0x19",
          "removed": false
        },
        {
          "address": "0x291a34a9f686d4f509fc77e3756d66b206e002f8",
          "topics": [
            "0x422114760399465454e00471dd7c1c0a6cb871bc6fcebef498fa87328fd7b05d",
            "0x0000000000000000000000004077da08a337980a36946598abbd26b12e74a9a2"
          ],
          "data": "0x000000000000000000000000000000000000000000000000000000000000001b0000000000000000000000000000000000000000000000000000000011111111",
          "blockHash": "0xdec659e3007186d21ab0688e3019150071ff91acdd9a9c4b33905799ace6796b",
          "blockNumber": "0xc86c6e",
          "transactionHash": "0x1615d50837855cc7022712667480f055d798446454ece5bdda0ef343f92012de",
          "transactionIndex": "0x1",
          "logIndex": "0x1a",
          "removed": false
        },
        {
          "address": "0x291a34a9f686d4f509fc77e3756d66b206e002f8",
          "topics": [
            "0x422114760399465454e00471dd7c1c0a6cb871bc6fcebef498fa87328fd7b05d",
            "0x0000000000000000000000005eb4041c61f4e3a7b235661ef7011234991e6683"
          ],
          "data": "0x000000000000000000000000000000000000000000000000000000000000001c0000000000000000000000000000000000000000000000000000000011111111",
          "blockHash": "0xdec659e3007186d21ab0688e3019150071ff91acdd9a9c4b33905799ace6796b",
          "blockNumber": "0xc86c6e",
          "transactionHash": "0x1615d50837855cc7022712667480f055d798446454ece5bdda0ef343f92012de",
          "transactionIndex": "0x1",
          "logIndex": "0x1b",
          "removed": false
        },
        {
          "address": "0x291a34a9f686d4f509fc77e3756d66b206e002f8",
          "topics": [
            "0x422114760399465454e00471dd7c1c0a6cb871bc6fcebef498fa87328fd7b05d",
            "0x0000000000000000000000005993efdc946ca00be2068856ef05da646ca09d5f"
          ],
          "data": "0x000000000000000000000000000000000000000000000000000000000000001d0000000000000000000000000000000000000000000000000000000011111111",
          "blockHash": "0xdec659e3007186d21ab0688e3019150071ff91acdd9a9c4b33905799ace6796b",
          "blockNumber": "0xc86c6e",
          "transactionHash": "0x1615d50837855cc7022712667480f055d798446454ece5bdda0ef343f92012de",
          "transactionIndex": "0x1",
          "logIndex": "0x1c",
          "removed": false
        },
        {
          "address": "0x291a34a9f686d4f509fc77e3756d66b206e002f8",
          "topics": [
            "0x422114760399465454e00471dd7c1c0a6cb871bc6fcebef498fa87328fd7b05d",
            "0x00000000000000000000000032ba3e81bfade4b02f2bf4e4727560f11e838414"
          ],
          "data": "0x000000000000000000000000000000000000000000000000000000000000001e0000000000000000000000000000000000000000000000000000000011111111",
          "blockHash": "0xdec659e3007186d21ab0688e3019150071ff91acdd9a9c4b33905799ace6796b",
          "blockNumber": "0xc86c6e",
          "transactionHash": "0x1615d50837855cc7022712667480f055d798446454ece5bdda0ef343f92012de",
          "transactionIndex": "0x1",
          "logIndex": "0x1d",
          "removed": false
        },
        {
          "address": "0x291a34a9f686d4f509fc77e3756d66b206e002f8",
          "topics": [
            "0x422114760399465454e00471dd7c1c0a6cb871bc6fcebef498fa87328fd7b05d",
            "0x000000000000000000000000db49c3a43d610286b35fd29dc5d06ad66fab6f61"
          ],
          "data": "0x000000000000000000000000000000000000000000000000000000000000001f0000000000000000000000000000000000000000000000000000000011111111",
          "blockHash": "0xdec659e3007186d21ab0688e3019150071ff91acdd9a9c4b33905799ace6796b",
          "blockNumber": "0xc86c6e",
          "transactionHash": "0x1615d50837855cc7022712667480f055d798446454ece5bdda0ef343f92012de",
          "transactionIndex": "0x1",
          "logIndex": "0x1e",
          "removed": false
        },
        {
          "address": "0x291a34a9f686d4f509fc77e3756d66b206e002f8",
          "topics": [
            "0x422114760399465454e00471dd7c1c0a6cb871bc6fcebef498fa87328fd7b05d",
            "0x000000000000000000000000d5d838c6bd0acb3a2ca975c289d99a8cf86c4319"
          ],
          "data": "0x00000000000000000000000000000000000000000000000000000000000000200000000000000000000000000000000000000000000000000000000011111111",
          "blockHash": "0xdec659e3007186d21ab0688e3019150071ff91acdd9a9c4b33905799ace6796b",
          "blockNumber": "0xc86c6e",
          "transactionHash": "0x1615d50837855cc7022712667480f055d798446454ece5bdda0ef343f92012de",
          "transactionIndex": "0x1",
          "logIndex": "0x1f",
          "removed": false
        },
        {
          "address": "0x291a34a9f686d4f509fc77e3756d66b206e002f8",
          "topics": [
            "0x422114760399465454e00471dd7c1c0a6cb871bc6fcebef498fa87328fd7b05d",
            "0x000000000000000000000000d70a0e59ab73e03001b4a7cff4a9f126e7d95032"
          ],
          "data": "0x00000000000000000000000000000000000000000000000000000000000000210000000000000000000000000000000000000000000000000000000011111111",
          "blockHash": "0xdec659e3007186d21ab0688e3019150071ff91acdd9a9c4b33905799ace6796b",
          "blockNumber": "0xc86c6e",
          "transactionHash": "0x1615d50837855cc7022712667480f055d798446454ece5bdda0ef343f92012de",
          "transactionIndex": "0x1",
          "logIndex": "0x20",
          "removed": false
        },
        {
          "address": "0x291a34a9f686d4f509fc77e3756d66b206e002f8",
          "topics": [
            "0x422114760399465454e00471dd7c1c0a6cb871bc6fcebef498fa87328fd7b05d",
            "0x000000000000000000000000550e2d79eb01fd13872ddd158dca5cc272335390"
          ],
          "data": "0x00000000000000000000000000000000000000000000000000000000000000220000000000000000000000000000000000000000000000000000000011111111",
          "blockHash": "0xdec659e3007186d21ab0688e3019150071ff91acdd9a9c4b33905799ace6796b",
          "blockNumber": "0xc86c6e",
          "transactionHash": "0x1615d50837855cc7022712667480f055d798446454ece5bdda0ef343f92012de",
          "transactionIndex": "0x1",
          "logIndex": "0x21",
          "removed": false
        },
        {
          "address": "0x291a34a9f686d4f509fc77e3756d66b206e002f8",
          "topics": [
            "0x422114760399465454e00471dd7c1c0a6cb871bc6fcebef498fa87328fd7b05d",
            "0x0000000000000000000000006cb6cb127be6e52dc293d1e50b390a9217d90d66"
          ],
          "data": "0x00000000000000000000000000000000000000000000000000000000000000230000000000000000000000000000000000000000000000000000000011111111",
          "blockHash": "0xdec659e3007186d21ab0688e3019150071ff91acdd9a9c4b33905799ace6796b",
          "blockNumber": "0xc86c6e",
          "transactionHash": "0x1615d50837855cc7022712667480f055d798446454ece5bdda0ef343f92012de",
          "transactionIndex": "0x1",
          "logIndex": "0x22",
          "removed": false
        },
        {
          "address": "0x291a34a9f686d4f509fc77e3756d66b206e002f8",
          "topics": [
            "0x422114760399465454e00471dd7c1c0a6cb871bc6fcebef498fa87328fd7b05d",
            "0x000000000000000000000000868eebc228c5d0f453358273750ede1411720379"
          ],
          "data": "0x00000000000000000000000000000000000000000000000000000000000000240000000000000000000000000000000000000000000000000000000011111111",
          "blockHash": "0xdec659e3007186d21ab0688e3019150071ff91acdd9a9c4b33905799ace6796b",
          "blockNumber": "0xc86c6e",
          "transactionHash": "0x1615d50837855cc7022712667480f055d798446454ece5bdda0ef343f92012de",
          "transactionIndex": "0x1",
          "logIndex": "0x23",
          "removed": false
        },
        {
          "address": "0x291a34a9f686d4f509fc77e3756d66b206e002f8",
          "topics": [
            "0x422114760399465454e00471dd7c1c0a6cb871bc6fcebef498fa87328fd7b05d",
            "0x000000000000000000000000ca26414f30aa25581b895cbf50dd338f11e3daab"
          ],
          "data": "0x00000000000000000000000000000000000000000000000000000000000000250000000000000000000000000000000000000000000000000000000011111111",
          "blockHash": "0xdec659e3007186d21ab0688e3019150071ff91acdd9a9c4b33905799ace6796b",
          "blockNumber": "0xc86c6e",
          "transactionHash": "0x1615d50837855cc7022712667480f055d798446454ece5bdda0ef343f92012de",
          "transactionIndex": "0x1",
          "logIndex": "0x24",
          "removed": false
        },
        {
          "address": "0x291a34a9f686d4f509fc77e3756d66b206e002f8",
          "topics": [
            "0x422114760399465454e00471dd7c1c0a6cb871bc6fcebef498fa87328fd7b05d",
            "0x0000000000000000000000003ffa6e3fb7c1063c341979350986370942ab8183"
          ],
          "data": "0x00000000000000000000000000000000000000000000000000000000000000260000000000000000000000000000000000000000000000000000000011111111",
          "blockHash": "0xdec659e3007186d21ab0688e3019150071ff91acdd9a9c4b33905799ace6796b",
          "blockNumber": "0xc86c6e",
          "transactionHash": "0x1615d50837855cc7022712667480f055d798446454ece5bdda0ef343f92012de",
          "transactionIndex": "0x1",
          "logIndex": "0x25",
          "removed": false
        },
        {
          "address": "0x291a34a9f686d4f509fc77e3756d66b206e002f8",
          "topics": [
            "0x422114760399465454e00471dd7c1c0a6cb871bc6fcebef498fa87328fd7b05d",
            "0x000000000000000000000000fb56ddf255236f9e92c4e46e60537ad4a9b56a69"
          ],
          "data": "0x00000000000000000000000000000000000000000000000000000000000000270000000000000000000000000000000000000000000000000000000011111111",
          "blockHash": "0xdec659e3007186d21ab0688e3019150071ff91acdd9a9c4b33905799ace6796b",
          "blockNumber": "0xc86c6e",
          "transactionHash": "0x1615d50837855cc7022712667480f055d798446454ece5bdda0ef343f92012de",
          "transactionIndex": "0x1",
          "logIndex": "0x26",
          "removed": false
        },
        {
          "address": "0x291a34a9f686d4f509fc77e3756d66b206e002f8",
          "topics": [
            "0x422114760399465454e00471dd7c1c0a6cb871bc6fcebef498fa87328fd7b05d",
            "0x00000000000000000000000006d80ab8e8116219bc4262eb90fc47f279aa8d8f"
          ],
          "data": "0x00000000000000000000000000000000000000000000000000000000000000280000000000000000000000000000000000000000000000000000000011111111",
          "blockHash": "0xdec659e3007186d21ab0688e3019150071ff91acdd9a9c4b33905799ace6796b",
          "blockNumber": "0xc86c6e",
          "transactionHash": "0x1615d50837855cc7022712667480f055d798446454ece5bdda0ef343f92012de",
          "transactionIndex": "0x1",
          "logIndex": "0x27",
          "removed": false
        },
        {
          "address": "0x291a34a9f686d4f509fc77e3756d66b206e002f8",
          "topics": [
            "0x422114760399465454e00471dd7c1c0a6cb871bc6fcebef498fa87328fd7b05d",
            "0x000000000000000000000000c7f8f2b58319481aea7691b651c99250ed9e7c07"
          ],
          "data": "0x00000000000000000000000000000000000000000000000000000000000000290000000000000000000000000000000000000000000000000000000011111111",
          "blockHash": "0xdec659e3007186d21ab0688e3019150071ff91acdd9a9c4b33905799ace6796b",
          "blockNumber": "0xc86c6e",
          "transactionHash": "0x1615d50837855cc7022712667480f055d798446454ece5bdda0ef343f92012de",
          "transactionIndex": "0x1",
          "logIndex": "0x28",
          "removed": false
        },
        {
          "address": "0x291a34a9f686d4f509fc77e3756d66b206e002f8",
          "topics": [
            "0x422114760399465454e00471dd7c1c0a6cb871bc6fcebef498fa87328fd7b05d",
            "0x000000000000000000000000c61a28580c4e39553fd78b6a6a306dbf266fab09"
          ],
          "data": "0x000000000000000000000000000000000000000000000000000000000000002a0000000000000000000000000000000000000000000000000000000011111111",
          "blockHash": "0xdec659e3007186d21ab0688e3019150071ff91acdd9a9c4b33905799ace6796b",
          "blockNumber": "0xc86c6e",
          "transactionHash": "0x1615d50837855cc7022712667480f055d798446454ece5bdda0ef343f92012de",
          "transactionIndex": "0x1",
          "logIndex": "0x29",
          "removed": false
        },
        {
          "address": "0x291a34a9f686d4f509fc77e3756d66b206e002f8",
          "topics": [
            "0x422114760399465454e00471dd7c1c0a6cb871bc6fcebef498fa87328fd7b05d",
            "0x000000000000000000000000bbb1323ec7d3b445dc71412547d47716c03b1826"
          ],
          "data": "0x000000000000000000000000000000000000000000000000000000000000002b0000000000000000000000000000000000000000000000000000000011111111",
          "blockHash": "0xdec659e3007186d21ab0688e3019150071ff91acdd9a9c4b33905799ace6796b",
          "blockNumber": "0xc86c6e",
          "transactionHash": "0x1615d50837855cc7022712667480f055d798446454ece5bdda0ef343f92012de",
          "transactionIndex": "0x1",
          "logIndex": "0x2a",
          "removed": false
        },
        {
          "address": "0x291a34a9f686d4f509fc77e3756d66b206e002f8",
          "topics": [
            "0x422114760399465454e00471dd7c1c0a6cb871bc6fcebef498fa87328fd7b05d",
            "0x00000000000000000000000080492a739bf698278900111431f963006fe35ad7"
          ],
          "data": "0x000000000000000000000000000000000000000000000000000000000000002c0000000000000000000000000000000000000000000000000000000011111111",
          "blockHash": "0xdec659e3007186d21ab0688e3019150071ff91acdd9a9c4b33905799ace6796b",
          "blockNumber": "0xc86c6e",
          "transactionHash": "0x1615d50837855cc7022712667480f055d798446454ece5bdda0ef343f92012de",
          "transactionIndex": "0x1",
          "logIndex": "0x2b",
          "removed": false
        },
        {
          "address": "0x291a34a9f686d4f509fc77e3756d66b206e002f8",
          "topics": [
            "0x422114760399465454e00471dd7c1c0a6cb871bc6fcebef498fa87328fd7b05d",
            "0x00000000000000000000000012ebb307aeaa635d806294526ea5b408420840a7"
          ],
          "data": "0x000000000000000000000000000000000000000000000000000000000000002d0000000000000000000000000000000000000000000000000000000011111111",
          "blockHash": "0xdec659e3007186d21ab0688e3019150071ff91acdd9a9c4b33905799ace6796b",
          "blockNumber": "0xc86c6e",
          "transactionHash": "0x1615d50837855cc7022712667480f055d798446454ece5bdda0ef343f92012de",
          "transactionIndex": "0x1",
          "logIndex": "0x2c",
          "removed": false
        },
        {
          "address": "0x291a34a9f686d4f509fc77e3756d66b206e002f8",
          "topics": [
            "0x422114760399465454e00471dd7c1c0a6cb871bc6fcebef498fa87328fd7b05d",
            "0x0000000000000000000000000dc0669495e4b018db1f5a83c43889b5769031c1"
          ],
          "data": "0x000000000000000000000000000000000000000000000000000000000000002e0000000000000000000000000000000000000000000000000000000011111111",
          "blockHash": "0xdec659e3007186d21ab0688e3019150071ff91acdd9a9c4b33905799ace6796b",
          "blockNumber": "0xc86c6e",
          "transactionHash": "0x1615d50837855cc7022712667480f055d798446454ece5bdda0ef343f92012de",
          "transactionIndex": "0x1",
          "logIndex": "0x2d",
          "removed": false
        },
        {
          "address": "0x291a34a9f686d4f509fc77e3756d66b206e002f8",
          "topics": [
            "0x422114760399465454e00471dd7c1c0a6cb871bc6fcebef498fa87328fd7b05d",
            "0x0000000000000000000000007df6d32cf5d38cf7b7781989111c95ae4c8ba1f2"
          ],
          "data": "0x000000000000000000000000000000000000000000000000000000000000002f0000000000000000000000000000000000000000000000000000000011111111",
          "blockHash": "0xdec659e3007186d21ab0688e3019150071ff91acdd9a9c4b33905799ace6796b",
          "blockNumber": "0xc86c6e",
          "transactionHash": "0x1615d50837855cc7022712667480f055d798446454ece5bdda0ef343f92012de",
          "transactionIndex": "0x1",
          "logIndex": "0x2e",
          "removed": false
        },
        {
          "address": "0x291a34a9f686d4f509fc77e3756d66b206e002f8",
          "topics": [
            "0x422114760399465454e00471dd7c1c0a6cb871bc6fcebef498fa87328fd7b05d",
            "0x000000000000000000000000b0bfc8a102497721cd32e5acbf89593b0ce36edf"
          ],
          "data": "0x00000000000000000000000000000000000000000000000000000000000000300000000000000000000000000000000000000000000000000000000011111111",
          "blockHash": "0xdec659e3007186d21ab0688e3019150071ff91acdd9a9c4b33905799ace6796b",
          "blockNumber": "0xc86c6e",
          "transactionHash": "0x1615d50837855cc7022712667480f055d798446454ece5bdda0ef343f92012de",
          "transactionIndex": "0x1",
          "logIndex": "0x2f",
          "removed": false
        },
        {
          "address": "0x291a34a9f686d4f509fc77e3756d66b206e002f8",
          "topics": [
            "0x422114760399465454e00471dd7c1c0a6cb871bc6fcebef498fa87328fd7b05d",
            "0x00000000000000000000000058e9e59d18bc9c22a060e016d899c1d9c1570306"
          ],
          "data": "0x00000000000000000000000000000000000000000000000000000000000000310000000000000000000000000000000000000000000000000000000011111111",
          "blockHash": "0xdec659e3007186d21ab0688e3019150071ff91acdd9a9c4b33905799ace6796b",
          "blockNumber": "0xc86c6e",
          "transactionHash": "0x1615d50837855cc7022712667480f055d798446454ece5bdda0ef343f92012de",
          "transactionIndex": "0x1",
          "logIndex": "0x30",
          "removed": false
        },
        {
          "address": "0x291a34a9f686d4f509fc77e3756d66b206e002f8",
          "topics": [
            "0x422114760399465454e00471dd7c1c0a6cb871bc6fcebef498fa87328fd7b05d",
            "0x0000000000000000000000003e221f89196415ca2f04c648a25425f748c5b0b4"
          ],
          "data": "0x00000000000000000000000000000000000000000000000000000000000000320000000000000000000000000000000000000000000000000000000011111111",
          "blockHash": "0xdec659e3007186d21ab0688e3019150071ff91acdd9a9c4b33905799ace6796b",
          "blockNumber": "0xc86c6e",
          "transactionHash": "0x1615d50837855cc7022712667480f055d798446454ece5bdda0ef343f92012de",
          "transactionIndex": "0x1",
          "logIndex": "0x31",
          "removed": false
        }
      ],
      "logsBloom": "0x080000000430380004000000002000020200000000080004000200000140018000000000110280020000400010a40000100009004020000100000000000000000000800000001002101208002000000000400000000000802800000800010000008800218104000000400004982200000000000000000a0800840020000000000210080180400000880920000021000000000000000008000000200400028801002002008202000080840000000400000010800040000002202000200000000000000245c30000000000002100102000000100200000000622000812000100420080441000020000000440028000000100890800008000080000010020040000",
      "type": "0x2",
      "transactionHash": "0x1615d50837855cc7022712667480f055d798446454ece5bdda0ef343f92012de",
      "transactionIndex": "0x1",
      "blockHash": "0xdec659e3007186d21ab0688e3019150071ff91acdd9a9c4b33905799ace6796b",
      "blockNumber": "0xc86c6e",
      "gasUsed": "0x35f63c",
      "effectiveGasPrice": "0x1a9a51e32",
      "from": "0x2167dcea5210a0744a4718ea4c56c042a2f84269",
      "to": "0x291a34a9f686d4f509fc77e3756d66b206e002f8",
      "contractAddress": null,
      "l1BaseFeeScalar": "0x44d",
      "l1BlobBaseFee": "0xeadf88d1f3",
      "l1BlobBaseFeeScalar": "0xa118b",
      "l1Fee": "0x2a9433d40e80c",
      "l1GasPrice": "0x12b4dd030",
      "l1GasUsed": "0x4652"
    }
  ],
  "libraries": [],
  "pending": [],
  "returns": {},
  "timestamp": 1722038208,
  "chain": 84532,
  "commit": "2d34579"
}