{
  "transactions": [
    {
      "hash": null,
      "transactionType": "CALL",
      "contractName": null,
      "contractAddress": "0x291a34a9f686d4f509fc77e3756d66b206e002f8",
      "function": "trustedPrepMigrationBatch(address[],address)",
      "arguments": [
        "[0xB0BB3BE0Dabfc092A59A72E61ed0e7557BB36f7c, 0x6f855A872cfE468F0eD0fFc33108265E8963cF83, 0x25FCE60531ecDD512e2EE7712d32111c9b8dD358, 0xbB36c93B29F1F5A9Bc5bD9dAA20C78EeD15126Eb, 0xc98b1D822BD855908c29f2a050c537889c60921F, 0x313518A035871Eb1a717aF80972929aD0ab07BE0, 0x1cB302318380377D2Ed3CA5da15d8Cb222585384, 0xfC03e6330AE571e338B361d4AF311B91BeFD192C, 0x35Cc86E6ebaF2b3f26a9c872ca9E175674676D4E, 0xbFF030CD07978255E5074845C3DD193a7165bc19, 0x1cBe58608EfA4677801f8cEF8F075a315A7B7099, 0x33B93215B9DCECf8dD87a212001FB0B22c19277A, 0xd229d215CEB960838A6a21386Bf3CFA75972Cb7f, 0x78E19a0ce24bD84e7f6AC50Eb6AB97F3fEf33885, 0xF93970d29d7Dc8Ec789c91f30f5b1892A9452546, 0x1A46F4aC9DC02eD6757D52B796AC5ECAe3121058, 0x5F6ccddED92A7263e7386c26B3F6FDBd8900Cb2e, 0x07D6a71DeF1D27D2C7E48550755bfA6C83f4Be4C, 0xd6a51d49d720df2cc2Aa3585eeea71886379a9B1, 0xdc142556a2EC66C44580B01dD4C6a448D282b7AF, 0x6Dca3ba4EC431BA1aA9a4476bE6e77178E99C12b, 0xc59d1A76a780286470C2754189D7a5Fa7212520c, 0x0C6C91591bcD27a65D17652Eb8548D18c5CF485f, 0xb2f8401fdd9732bc835eF471aD055Ef28E1364b2, 0x9C8B1E9404c3620538F25b320F0ccA4a812f9dDB, 0x2C92f2009718454a6F0E6Bb3799454020e6155eF, 0xe771b66e6000Ccb4ee0B1BBf456DfFE726bc3f4f, 0xee7EAD6a88D7b49F4C999aB15c655E88216B0222, 0x90444e1FeE0d1139148f6CD3853Fb8976e8Fc35E, 0x9bB3ED0a3fE76D11357b33f8ad7b08309149E6f1, 0x21585C2f5C5750Db2794105cC7d31EF4e0A5A3CA, 0x53448f792262507EB6570a74742A25ccEcb17D87, 0x09649DD6666BB73F8e3F1fa0Ede7052E1682A406, 0x6B616E3D593a43d4e98CCb97aA3F7E7832ff6e8c, 0xBD03A6889eE93b0d527AeE1eA7C1D66710a9e3ec, 0x445115135717878a80b6777BBB4EaE9e35F24F7A, 0x6dB35e03e48e2bf3106E0465A0249A487aBF8d30, 0x563bD36Ca9BCe5E15866609d159206678B2FdfF6, 0x6D594a89289dfB27A96Af31a4c136e4932a8a303, 0xd0aECA01a5379319cc7fbb79cFdb3fBC7e2dCbe3, 0xe7E3D00CdDb3Aa1c1bf6dFD0Eb601c9F519B234D, 0xBE5a94625614301820B45Cd0D41b33c8c7d039c6, 0x1B844cC25A56236d625828b7Cf9558D25f69DfD8, 0x5d646979F8816834d767766fD4fE8C80896195C6, 0x1E1c5A970e358D42612Be3DA0Fc14250aa38Cb48, 0x399A0AE4280e8C41C5749f0fAb20DC9468401C03, 0x09429569aBD40696631e6fd3e68116878a93a7F7, 0x259F5fD0fE18482f990B7a086C3B209924aB02ac, 0xCAa114dA6201e7F0169fE069B05b385655dFf4DC, 0x2804Ec83370B5f0068c82B02218B0F82c0E8a965]",
        "0x0000000000000000000000000000000011111111"
      ],
      "transaction": {
        "from": "0x2167dcea5210a0744a4718ea4c56c042a2f84269",
        "to": "0x291a34a9f686d4f509fc77e3756d66b206e002f8",
        "gas": "0x4a2ca5",
        "value": "0x0",
        "input": "0x0c8a74e0000000000000000000000000000000000000000000000000000000000000004000000000000000000000000000000000000000000000000000000000111111110000000000000000000000000000000000000000000000000000000000000032000000000000000000000000b0bb3be0dabfc092a59a72e61ed0e7557bb36f7c0000000000000000000000006f855a872cfe468f0ed0ffc33108265e8963cf8300000000000000000000000025fce60531ecdd512e2ee7712d32111c9b8dd358000000000000000000000000bb36c93b29f1f5a9bc5bd9daa20c78eed15126eb000000000000000000000000c98b1d822bd855908c29f2a050c537889c60921f000000000000000000000000313518a035871eb1a717af80972929ad0ab07be00000000000000000000000001cb302318380377d2ed3ca5da15d8cb222585384000000000000000000000000fc03e6330ae571e338b361d4af311b91befd192c00000000000000000000000035cc86e6ebaf2b3f26a9c872ca9e175674676d4e000000000000000000000000bff030cd07978255e5074845c3dd193a7165bc190000000000000000000000001cbe58608efa4677801f8cef8f075a315a7b709900000000000000000000000033b93215b9dcecf8dd87a212001fb0b22c19277a000000000000000000000000d229d215ceb960838a6a21386bf3cfa75972cb7f00000000000000000000000078e19a0ce24bd84e7f6ac50eb6ab97f3fef33885000000000000000000000000f93970d29d7dc8ec789c91f30f5b1892a94525460000000000000000000000001a46f4ac9dc02ed6757d52b796ac5ecae31210580000000000000000000000005f6ccdded92a7263e7386c26b3f6fdbd8900cb2e00000000000000000000000007d6a71def1d27d2c7e48550755bfa6c83f4be4c000000000000000000000000d6a51d49d720df2cc2aa3585eeea71886379a9b1000000000000000000000000dc142556a2ec66c44580b01dd4c6a448d282b7af0000000000000000000000006dca3ba4ec431ba1aa9a4476be6e77178e99c12b000000000000000000000000c59d1a76a780286470c2754189d7a5fa7212520c0000000000000000000000000c6c91591bcd27a65d17652eb8548d18c5cf485f000000000000000000000000b2f8401fdd9732bc835ef471ad055ef28e1364b20000000000000000000000009c8b1e9404c3620538f25b320f0cca4a812f9ddb0000000000000000000000002c92f2009718454a6f0e6bb3799454020e6155ef000000000000000000000000e771b66e6000ccb4ee0b1bbf456dffe726bc3f4f000000000000000000000000ee7ead6a88d7b49f4c999ab15c655e88216b022200000000000000000000000090444e1fee0d1139148f6cd3853fb8976e8fc35e0000000000000000000000009bb3ed0a3fe76d11357b33f8ad7b08309149e6f100000000000000000000000021585c2f5c5750db2794105cc7d31ef4e0a5a3ca00000000000000000000000053448f792262507eb6570a74742a25ccecb17d8700000000000000000000000009649dd6666bb73f8e3f1fa0ede7052e1682a4060000000000000000000000006b616e3d593a43d4e98ccb97aa3f7e7832ff6e8c000000000000000000000000bd03a6889ee93b0d527aee1ea7c1d66710a9e3ec000000000000000000000000445115135717878a80b6777bbb4eae9e35f24f7a0000000000000000000000006db35e03e48e2bf3106e0465a0249a487abf8d30000000000000000000000000563bd36ca9bce5e15866609d159206678b2fdff60000000000000000000000006d594a89289dfb27a96af31a4c136e4932a8a303000000000000000000000000d0aeca01a5379319cc7fbb79cfdb3fbc7e2dcbe3000000000000000000000000e7e3d00cddb3aa1c1bf6dfd0eb601c9f519b234d000000000000000000000000be5a94625614301820b45cd0d41b33c8c7d039c60000000000000000000000001b844cc25a56236d625828b7cf9558d25f69dfd80000000000000000000000005d646979f8816834d767766fd4fe8c80896195c60000000000000000000000001e1c5a970e358d42612be3da0fc14250aa38cb48000000000000000000000000399a0ae4280e8c41c5749f0fab20dc9468401c0300000000000000000000000009429569abd40696631e6fd3e68116878a93a7f7000000000000000000000000259f5fd0fe18482f990b7a086c3b209924ab02ac000000000000000000000000caa114da6201e7f0169fe069b05b385655dff4dc0000000000000000000000002804ec83370b5f0068c82b02218b0f82c0e8a965",
        "nonce": "0x81",
        "chainId": "0x14a34"
      },
      "additionalContracts": [],
      "isFixedGasLimit": false
    }
  ],
  "receipts": [],
  "libraries": [],
  "pending": [],
  "returns": {},
  "timestamp": 1722038606,
  "chain": 84532,
  "commit": "2d34579"
}