{
  "transactions": [
    {
      "hash": "0xdb9969d9d192cb4f310e8b207df0765471c8fd84e936f2e1cb82eb044b415b72",
      "transactionType": "CALL",
      "contractName": null,
      "contractAddress": "0x339513226Afd92B309837Bad402c6D3ADDE9Ad24",
      "function": "newChannel(uint256,bytes,address,bytes)",
      "arguments": [
        "1",
        "0xdc151805e5a93284e1e337bf5b7c4060ab9bc5be697066733a2f2f62616679626569637a73736364736273376666717a3535617371646633736d76366b6c637733676f66737a76776c79617263693437626766333534",
        "0x05aD6cA9C2b3F71a6B30A8C7d414C95E10EC0217",
        "0x000000000000000000000000000000000000000000000000000000000000004000000000000000000000000000000000000000000000000000000000000000800000000000000000000000000000000000000000000000000000000000000001000000000000000000000000000000000000000000000000000000000000000100000000000000000000000000000000000000000000000000000000000000010000000000000000000000000000000000000000000000000000000000000002"
      ],
      "transaction": {
        "type": "0x02",
        "from": "0x33f59bfd58c16defb93612de65a5123f982f58ba",
        "to": "0x339513226afd92b309837bad402c6d3adde9ad24",
        "gas": "0x39099",
        "value": "0x0",
        "data": "0x66ce08300000000000000000000000000000000000000000000000000000000000000001000000000000000000000000000000000000000000000000000000000000008000000000000000000000000005ad6ca9c2b3f71a6b30a8c7d414c95e10ec021700000000000000000000000000000000000000000000000000000000000001000000000000000000000000000000000000000000000000000000000000000056dc151805e5a93284e1e337bf5b7c4060ab9bc5be697066733a2f2f62616679626569637a73736364736273376666717a3535617371646633736d76366b6c637733676f66737a76776c796172636934376267663335340000000000000000000000000000000000000000000000000000000000000000000000000000000000c0000000000000000000000000000000000000000000000000000000000000004000000000000000000000000000000000000000000000000000000000000000800000000000000000000000000000000000000000000000000000000000000001000000000000000000000000000000000000000000000000000000000000000100000000000000000000000000000000000000000000000000000000000000010000000000000000000000000000000000000000000000000000000000000002",
        "nonce": "0x12",
        "accessList": []
      },
      "additionalContracts": [
        {
          "transactionType": "CREATE",
          "address": "0xD1047bfbedaeDa85cb4e3baA866FaBAf37DB6FF0",
          "initCode": "0x630000005780600e6000396000f300dc151805e5a93284e1e337bf5b7c4060ab9bc5be697066733a2f2f62616679626569637a73736364736273376666717a3535617371646633736d76366b6c637733676f66737a76776c79617263693437626766333534"
        }
      ],
      "isFixedGasLimit": false
    },
    {
      "hash": "0xab63332766cb1bef09f7c021c3d4e52660e0a87ef7908208a484499dc631b1f4",
      "transactionType": "CALL",
      "contractName": null,
      "contractAddress": "0xEc341633d600Bdad8E704729AE95049DDfec6c6f",
      "function": "newItems(uint256,(bytes,bytes32[])[])",
      "arguments": [
        "1",
        "[(0xdc151805e5a93284e1e337bf5b7c4060ab9bc5be697066733a2f2f62616679626569637a73736364736273376666717a3535617371646633736d76366b6c637733676f66737a76776c79617263693437626766333534, [0xe846dab804243f7d1d8fe033034b3fa3084577eb3b475989936f699a5333bc84])]"
      ],
      "transaction": {
        "type": "0x02",
        "from": "0x33f59bfd58c16defb93612de65a5123f982f58ba",
        "to": "0xec341633d600bdad8e704729ae95049ddfec6c6f",
        "gas": "0x3f4fa",
        "value": "0x0",
        "data": "0x6b7059160000000000000000000000000000000000000000000000000000000000000001000000000000000000000000000000000000000000000000000000000000004000000000000000000000000000000000000000000000000000000000000000010000000000000000000000000000000000000000000000000000000000000020000000000000000000000000000000000000000000000000000000000000004000000000000000000000000000000000000000000000000000000000000000c00000000000000000000000000000000000000000000000000000000000000056dc151805e5a93284e1e337bf5b7c4060ab9bc5be697066733a2f2f62616679626569637a73736364736273376666717a3535617371646633736d76366b6c637733676f66737a76776c79617263693437626766333534000000000000000000000000000000000000000000000000000000000000000000000000000000000001e846dab804243f7d1d8fe033034b3fa3084577eb3b475989936f699a5333bc84",
        "nonce": "0x13",
        "accessList": []
      },
      "additionalContracts": [
        {
          "transactionType": "CREATE",
          "address": "0x34e737bcB5ab81cFA61af8a1e9c245b0D8787e50",
          "initCode": "0x630000005780600e6000396000f300dc151805e5a93284e1e337bf5b7c4060ab9bc5be697066733a2f2f62616679626569637a73736364736273376666717a3535617371646633736d76366b6c637733676f66737a76776c79617263693437626766333534"
        }
      ],
      "isFixedGasLimit": false
    }
  ],
  "receipts": [
    {
      "transactionHash": "0xdb9969d9d192cb4f310e8b207df0765471c8fd84e936f2e1cb82eb044b415b72",
      "transactionIndex": "0x1",
      "blockHash": "0x6f291d7402b510f647671b72b0a2ce9a420d9d65b71e98407d2600236900649f",
      "blockNumber": "0x11",
      "from": "0x33F59bfD58c16dEfB93612De65A5123F982F58bA",
      "to": "0x339513226Afd92B309837Bad402c6D3ADDE9Ad24",
      "cumulativeGasUsed": "0x2afb5",
      "gasUsed": "0x2afb5",
      "contractAddress": null,
      "logs": [
        {
          "address": "0x05aD6cA9C2b3F71a6B30A8C7d414C95E10EC0217",
          "topics": [
            "0x6fed877b6bdcc2bc679758195a73ff22ca816ccdeb56213f85aea5aa3a7eb2bc"
          ],
          "data": "0x000000000000000000000000339513226afd92b309837bad402c6d3adde9ad24000000000000000000000000000000000000000000000000000000000000000100000000000000000000000000000000000000000000000000000000000000a0e846dab804243f7d1d8fe033034b3fa3084577eb3b475989936f699a5333bc8400000000000000000000000000000000000000000000000000000000000000e00000000000000000000000000000000000000000000000000000000000000001000000000000000000000000000000000000000000000000000000000000000100000000000000000000000000000000000000000000000000000000000000010000000000000000000000000000000000000000000000000000000000000002",
          "blockHash": "0x6f291d7402b510f647671b72b0a2ce9a420d9d65b71e98407d2600236900649f",
          "blockNumber": "0x11",
          "transactionHash": "0xdb9969d9d192cb4f310e8b207df0765471c8fd84e936f2e1cb82eb044b415b72",
          "transactionIndex": "0x1",
          "logIndex": "0x0",
          "removed": false
        },
        {
          "address": "0x339513226Afd92B309837Bad402c6D3ADDE9Ad24",
          "topics": [
            "0xc3daaf2a134d45ee8c5c0371ab26629e2bfae5b676d70d967072965bdace9d46"
          ],
          "data": "0x00000000000000000000000033f59bfd58c16defb93612de65a5123f982f58ba0000000000000000000000000000000000000000000000000000000000000001e846dab804243f7d1d8fe033034b3fa3084577eb3b475989936f699a5333bc84000000000000000000000000d1047bfbedaeda85cb4e3baa866fabaf37db6ff000000000000000000000000005ad6ca9c2b3f71a6b30a8c7d414c95e10ec0217",
          "blockHash": "0x6f291d7402b510f647671b72b0a2ce9a420d9d65b71e98407d2600236900649f",
          "blockNumber": "0x11",
          "transactionHash": "0xdb9969d9d192cb4f310e8b207df0765471c8fd84e936f2e1cb82eb044b415b72",
          "transactionIndex": "0x1",
          "logIndex": "0x1",
          "removed": false
        }
      ],
      "status": "0x1",
      "logsBloom": "0x00000000000000000000800000000000000000000000000000000000000000000000000000000000020000000200000000000000080000000000000000000000000000000010000000000000000000000000000000000000000000000000000000000000000000000000000080000000000000000000000000000000000000000000000000000000008000000000000000000040000000000000000000000000000000000000000000000000000000000000000000000000000000000008000000000000000000000000000000000000000000000000000000000000000000000000000000000000000000000000000400000000000000000000000000a00000",
      "type": "0x2",
      "effectiveGasPrice": "0x989680"
    },
    {
      "transactionHash": "0xab63332766cb1bef09f7c021c3d4e52660e0a87ef7908208a484499dc631b1f4",
      "transactionIndex": "0x2",
      "blockHash": "0x6f291d7402b510f647671b72b0a2ce9a420d9d65b71e98407d2600236900649f",
      "blockNumber": "0x11",
      "from": "0x33F59bfD58c16dEfB93612De65A5123F982F58bA",
      "to": "0xEc341633d600Bdad8E704729AE95049DDfec6c6f",
      "cumulativeGasUsed": "0x57ef8",
      "gasUsed": "0x2cf43",
      "contractAddress": null,
      "logs": [
        {
          "address": "0xEc341633d600Bdad8E704729AE95049DDfec6c6f",
          "topics": [
            "0x66423de90903b1557ce4a917e4b4b8b2abd4f6c6ede91fc703c648da0456f539"
          ],
          "data": "0x00000000000000000000000033f59bfd58c16defb93612de65a5123f982f58ba0000000000000000000000000000000000000000000000000000000000000001d347263344388388bb4ef9d9ae0201f0a744144ac9405affe86da2f4efe2af6400000000000000000000000034e737bcb5ab81cfa61af8a1e9c245b0d8787e50",
          "blockHash": "0x6f291d7402b510f647671b72b0a2ce9a420d9d65b71e98407d2600236900649f",
          "blockNumber": "0x11",
          "transactionHash": "0xab63332766cb1bef09f7c021c3d4e52660e0a87ef7908208a484499dc631b1f4",
          "transactionIndex": "0x2",
          "logIndex": "0x2",
          "removed": false
        },
        {
          "address": "0xEc341633d600Bdad8E704729AE95049DDfec6c6f",
          "topics": [
            "0x107dcf2c99bae149eb8d0dddf3a5dfee724a1762573f5ae628ea553fef3bba8f"
          ],
          "data": "0x00000000000000000000000033f59bfd58c16defb93612de65a5123f982f58ba0000000000000000000000000000000000000000000000000000000000000001d347263344388388bb4ef9d9ae0201f0a744144ac9405affe86da2f4efe2af64e846dab804243f7d1d8fe033034b3fa3084577eb3b475989936f699a5333bc84",
          "blockHash": "0x6f291d7402b510f647671b72b0a2ce9a420d9d65b71e98407d2600236900649f",
          "blockNumber": "0x11",
          "transactionHash": "0xab63332766cb1bef09f7c021c3d4e52660e0a87ef7908208a484499dc631b1f4",
          "transactionIndex": "0x2",
          "logIndex": "0x3",
          "removed": false
        }
      ],
      "status": "0x1",
      "logsBloom": "0x00000000000000000000000000000000000000000000000000000000000000000000000000000000000000000000000000000000000000000000008000000000004020000000000000000000000000000000000001000000000002000000000000000000000000000010000000000000008000000000000000000000000000000000000200000000000000000000000000000000000000000000000000000000000000000000000000000000000000000000000000000000000000000100000000000000000000000000000000000000000000000000000000000000000000000000000000000000000000000000000000000000000000000000000000000000",
      "type": "0x2",
      "effectiveGasPrice": "0x989680"
    }
  ],
  "libraries": [],
  "pending": [],
  "returns": {},
  "timestamp": 1706296214,
  "chain": 3600855875265181,
  "multi": false,
  "commit": "b4547de"
}